:060000000A128A111C2FF8
:100E380083010A128A11722FF300222F83160313DB
:100E4800981C272F282F222F730883120313990029
:100E58000A128A1145270A128A11080083160313F9
:100E680007138717263098008030831203139800E1
:100E78001930F0000030F100700883160313990050
:100E880008000310003003180130F10064307102CB
:100E9800031C4F2F502F512F712F031000300318B0
:100EA8000130F20064307202031C5B2F5C2F5D2F4F
:100EB800672F0130F0007008F20764307202031CDB
:100EC800662F672F5D2F0130F0007008F10764303E
:100ED8007102031C702F712F512F0800FF308316E9
:100EE800031386008312031386010A128A1132271C
:100EF8000A128A1183120313061C832F842F8F2F43
:100F080053300A128A1120270A128A110A128A11EA
:100F1800B5270A128A1183120313861C942F952F62
:100F2800A02F44300A128A1120270A128A110A12A5
:100F38008A11B5270A128A1183120313061DA52FD9
:100F4800A62FB12F4E300A128A1120270A128A11B1
:100F58000A128A11B5270A128A117E2F0A128A11DB
:100F680000280030F0000030F1007108803AFE00DF
:100F780080307E02031DC22FC8307002031CC52FAB
:100F8800C62FC72FFF2F0030F2000030F300730880
:100F9800803AFE0081307E02031DD42F2C3072026D
:100FA800031CD72FD82FD92FEC2F0130F2070318A5
:100FB800F30A0030F3077308803AFE0081307E029E
:100FC800031DE82F2C307202031CEB2FEC2FD92FB6
:100FD8000130F0070318F10A0030F1077108803A70
:100FE800FE0080307E02031DFB2FC8307002031CF8
:080FF800FE2FFF2FC72F080098
:00000001FF
