:060000000A128A1110280B
:10000800FE000308F5000408F6000A08F7007F0858
:10001800F8000A128A110F2C0A128A11572CFF1B9A
:100028001D2883137F1883170008840A0319FF0A01
:10003800080000308A000408840A82070034433428
:100048007234693474346934633461346C34203400
:1000580043346F346E3464346934743469346F34BF
:100068006E34213400346C346F346E346734693440
:1000780074347534643465343D3400346C3461341C
:100088007434693474347534643465343D340034FC
:10009800C0308400203083120313E4000408E50014
:1000A8000C30E6006408840083130008E700E40AC3
:1000B80065088400831767088000E50AE60B562860
:1000C800CC3084002C30E4000408E5000C30E60055
:1000D8006408840083130008E700E40A65088400C4
:1000E800831767088000E50AE60B6C28D83084007F
:1000F8004C30E4000408E5000730E600640884009A
:1001080083130008E700E40A65088400831767087A
:100118008000E50AE60B8228DF3084005330E400D3
:100128000408E5000730E60064088400831300082B
:10013800E700E40A65088400831767088000E50A79
:10014800E60B9828D830DE000130DF000530E400E7
:100158006408E0000A128A112A260A128A11C0309D
:1001680083120313DE000130DF000B30E400640863
:10017800E0000A128A112A260A128A11C0300A12CD
:100188008A1189260A128A11DF3083120313DE00CE
:100198000130DF000530E4006408E0000A128A112B
:1001A8002A260A128A11CC3083120313DE0001308A
:1001B800DF000B30E4006408E0000A128A112A26E6
:1001C8000A128A11831603176908E6006A08E7000D
:1001D8006B08E800B6308400383083120313E4005B
:1001E8000408E5000A30E600640884008313000868
:1001F800E700E40A65088400831767088000E50AB9
:10020800E60BF828A83084002830E4000408E5004C
:100218000E30E6006408840083170008E700E40A4B
:100228006508840067088000E50AE60B0E2990300F
:1002380084001030E4000408E5001830E600640883
:10024800840083170008E700E40A6508840067084B
:100258008000E50AE60B23290A128A1165260A128C
:100268008A110A128A117F250A128A11E63083122E
:100278000313DE000130DF000230E4006408E00010
:100288000A128A1103260A128A110D300A128A11DB
:1002980051260A128A110A128A117F250A128A1116
:1002A800B63083120313DE000130DF000930E400AA
:1002B8006408E0000A128A1103260A128A110D3016
:1002C8000A128A1151260A128A110A128A117F25E6
:1002D8000A128A11A83083120313DE000130DF00EE
:1002E8000A128A11DB250A128A110D300A128A11A4
:1002F80051260A128A110A128A117F250A128A11B6
:10030800903083120313DE000130DF000A128A11D5
:10031800DB250A128A110D300A128A1151260A1297
:100328008A110A128A117F250A128A110130831252
:100338000313DE008030DF000A128A11DB250A125F
:100348008A11153083120313DE008030DF000A1291
:100358008A11DB250A128A11C03083120313DE00CA
:100368000130DF000A128A11DB250A128A112030B7
:1003780083120313DE008030DF000A128A11DB25A6
:100388000A128A11CC3083120313DE000130DF0019
:100398000A128A11DB250A128A111A300A128A11E6
:1003A80051260A128A110A128A117F250A128A1105
:1003B8000800FA010314FA0D031000300318013085
:1003C800FB000310003003180130FC0083160313F0
:1003D8006908DB006A08DC006B08DD00A0308400D7
:1003E800363083120313E8000408E9000D30EA00F0
:1003F8006808840083170008EB00E80A690884008D
:1004080083136B088000E90AEA0BFC29AD308400ED
:100418004330E8000408E9000D30EA006808840069
:1004280083170008EB00E80A6908840083136B0847
:100438008000E90AEA0B122ABA3084005030E8003A
:100448000408E9000D30EA006808840083170008F2
:10045800EB00E80A6908840083136B088000E90A46
:10046800EA0B282AC7308400DF30E8000408E900D6
:100478000A30EA006808840083130008EB00E80AE1
:10048800690884006B088000E90AEA0B3E2AD1302B
:1004980084004230E8000408E9000A30EA006808ED
:1004A800840083130008EB00E80A690884006B08DD
:1004B8008000E90AEA0B532A01300A128A118926B8
:1004C8000A128A11003083160313EC000030ED0085
:1004D8000310003003180130FC00C73083120313E7
:1004E800DE000030DF000930E8006808E0000A128A
:1004F8008A112A260A128A110A128A1165260A12F4
:100508008A110A128A117F250A128A11DB30831296
:100518000313DE000030DF000230E8006808E00066
:100528000A128A1103260A128A110D300A128A1138
:1005380051260A128A110A128A117F250A128A1173
:10054800A03083120313DE000030DF000C30E80017
:100558006808E0000A128A1103260A128A110D306F
:100568000A128A1151260A128A110A128A117F2543
:100578000A128A11AD3083120313DE000030DF0047
:100588000C30E8006808E0000A128A1103260A12F3
:100598008A110D300A128A1151260A128A110A127A
:1005A8008A117F250A128A1180300A128A11892637
:1005B8000A128A11D13083120313DE000030DF00E3
:1005C8000930E8006808E0000A128A112A260A128F
:1005D8008A1180300A128A1189260A128A11031098
:1005E80000300318013083160313DE000C305E025E
:1005F800031CFF2A002B012B192B5E08BA3E84002E
:10060800831300080A128A1151260A128A1101302E
:1006180083120313E800680883160313DE070C30FF
:100628005E02031C182B192B012B0D300A128A119C
:1006380051260A128A11831203131816D030DA00D1
:100648000730DB000A128A1116250A128A117D303A
:100658000A128A114C200A128A110310003003185A
:100668000130FA00FB010314FB0DA03083120313C1
:10067800DA000F30DB000A128A1116250A128A11D5
:1006880001300A128A1189260A128A118312031369
:1006980018160800831603138801831203138801B0
:1006A8008316031385018312031385018B170B1718
:1006B800831603138C160A128A119A240A128A11B5
:1006C8000A128A1165260A128A1183120313181650
:1006D800FB010314FB0D0310003003180130FA006E
:1006E80005147908533A03197A2B7B2B812B790847
:1006F800443A031D802B812BB52B8514A030DA00DA
:100708000F30DB000A128A1116250A128A1179089D
:10071800533A0319902B912B972B7908443A031DD0
:10072800962B972BA72B83120313051085100515FD
:100738000A128A11DD210A128A11031000300318E7
:100748000130F900B52B79084E3A031DAC2BAD2BBF
:10075800B52B8312031385100310003003180130E2
:10076800F9007908513A031DBA2BBB2BBE2B851112
:1007780005110514752B0A128A11102841345434B6
:100788002B3443344D34473453343D3422342B34E2
:1007980039343134393437343834383439343834F6
:1007A800383435343934353422340034413454340F
:1007B8002B3443345334433453343D342234473494
:1007C80053344D3422340034413454342B344334BC
:1007D8004734503453345034573452343D34313420
:1007E8000034413454342B34433447345034533474
:1007F8005234533454343D34303400344134543456
:100808002B34433447345034533449344E3446340B
:100818003D34343400347A08013A031D142C152C65
:100828003B2C7C08013A031D1A2C1B2C2E2C8312FE
:1008380003138C121A08F400831603136C087D3E08
:100848008400740880000130EC070318ED0A0030BA
:10085800ED073A2C831203131A082C3A031D352C82
:10086800362C3A2C8C12FC010314FC0D4C2C7B0802
:10087800013A031D402C412C4C2C8C121A08F40010
:100888007408F90079080A128A11A9260A128A112D
:100898007808FF0077088A007608840075088300C6
:1008A800FE0E7E0E0900F901FA01FB01FC01FD01B3
:1008B80083160313EC01ED018317EC30FD000630BD
:1008C800FE00C630FF00E93084000A128A117C2637
:1008D8000A128A115D30FD000330FE00C230FF00AD
:1008E800103084000A128A117C260A128A11831396
:1008F800EC30FD000630FE00B930FF00DF30840028
:100908000A128A117C260A128A115A30FD00043014
:10091800FE00DC30FF00203084000A128A117C2699
:100928000A128A1183010A128A114E2B83160313A5
:100938008601880106309F0083120313860188010F
:1009480001300A128A1189260A128A110A128A119A
:1009580050250A128A110C300A128A1189260A12A5
:100968008A110A128A1150250A128A1106300A12AF
:100978008A1189260A128A110A128A1150250A1226
:100988008A1138300A128A1189260A128A110A1223
:100998008A1150250A128A1180300A128A11892672
:1009A8000A128A110A128A1150250A128A1108009D
:1009B80048347234643420346E346F3474342034E0
:1009C8006334743464340034483472346434203406
:1009D8006E346F34743420346334743464340034C3
:1009E800413454342B3443344D34473446343D3445
:1009F80031340034463449344E344934533448345D
:100A080045344434213400344C344F344E34473464
:100A18003A34003400344C344134543420343A34B9
:100A280000340034003083120313DC000030DD0092
:100A3800DE010314DE0D0130831603138100063036
:100A48008312031381004A2D292D0B1D2C2D2D2DCA
:100A5800292D0B11063081000130DC070318DD0A4F
:100A68000030DD075B085D06031D3C2D5A085C0657
:100A7800031D3F2D402D4A2D86090030DC00003033
:100A8800DD000310003003180130DE00DE08031D0E
:100A98004E2D4F2D282D080003100030031801306B
:100AA80083120313DB0032305B02031C5C2D5D2DC7
:100AB8005E2D7E2D0310003003180130DC00193044
:100AC8005C02031C682D692D6A2D742D0130DA0033
:100AD8005A08DC0719305C02031C732D742D6A2D2B
:100AE8000130DA005A08DB0732305B02031C7D2D27
:100AF8007E2D5E2D0800031000300318013083128C
:100B08000313DB0064305B02031C8B2D8C2D8D2DB1
:100B1800AD2D0310003003180130DC004B305C02AF
:100B2800031C972D982D992DA32D0130DA005A0812
:100B3800DC074B305C02031CA22DA32D992D01303C
:100B4800DA005A08DB0764305B02031CAC2DAD2DBC
:100B58008D2D08000310003003180130F1003230E9
:100B68007102031CB82DB92DBA2DDA2D03100030EF
:100B780003180130F20019307202031CC42DC52D70
:100B8800C62DD02D0130F0007008F207193072021E
:100B9800031CCF2DD02DC62D0130F0007008F107B1
:100BA80032307102031CD92DDA2DBA2D0800F42D2C
:100BB800831203135F08FF005E0884000A128A117B
:100BC80013200A128A110A128A1151260A128A114E
:100BD800013083120313DE070318DF0A0030DF0732
:100BE8005F08FF005E0884000A128A1113200A12A7
:100BF8008A110038031D012E022EDC2D0800031077
:100C080000300318013083120313E300232E630816
:100C18005E07E1005F080318013EE20061088400F6
:100C28008317621C831300080A128A1151260A12BC
:100C38008A11013083120313E1006108E307600899
:100C48006302031C282E292E0B2E080003100030E7
:100C58000318013083120313E3004A2E63085E076A
:100C6800E1005F080318013EE20061088400831771
:100C7800621C831300080A128A1199260A128A1123
:100C8800013083120313E1006108E307600863027F
:100C9800031C4F2E502E322E080083120313DD0042
:100CA800552E83160313981C5A2E5B2E552E83122D
:100CB80003135D0899000A128A117F250A128A1106
:100CC800080083160313071387172630980080300F
:100CD8008312031398001930DA000030DB005A0839
:100CE80083160313990008007E088A007F08820093
:100CF80078260A128A118000840A04087D060319DE
:100D08000034FF0A0319FE0A7C2E83120313DD0048
:100D1800081388175D0886000A128A1150250A12DE
:100D28008A11831203138813080083120313DD004A
:100D3800081788175D0886000A128A1150250A12BA
:100D48008A118312031388130800F3008312031314
:100D580008178817730886000A128A11AE250A1226
:100D68008A118312031388130800533445344E3410
:100D7800443449344E3447343E343E3400344134EC
:0A0D88005434003441345434003474
:00000001FF
